{
  "contractName": "CUEBookings",
  "abi": [
    {
      "constant": true,
      "inputs": [],
      "name": "decimals",
      "outputs": [
        {
          "name": "",
          "type": "uint8"
        }
      ],
      "payable": false,
      "stateMutability": "view",
      "type": "function",
      "signature": "0x313ce567"
    },
    {
      "constant": true,
      "inputs": [],
      "name": "CUEWallet",
      "outputs": [
        {
          "name": "",
          "type": "address"
        }
      ],
      "payable": false,
      "stateMutability": "view",
      "type": "function",
      "signature": "0x54c14690"
    },
    {
      "constant": false,
      "inputs": [],
      "name": "renounceOwnership",
      "outputs": [],
      "payable": false,
      "stateMutability": "nonpayable",
      "type": "function",
      "signature": "0x715018a6"
    },
    {
      "constant": true,
      "inputs": [],
      "name": "owner",
      "outputs": [
        {
          "name": "",
          "type": "address"
        }
      ],
      "payable": false,
      "stateMutability": "view",
      "type": "function",
      "signature": "0x8da5cb5b"
    },
    {
      "constant": true,
      "inputs": [],
      "name": "isOwner",
      "outputs": [
        {
          "name": "",
          "type": "bool"
        }
      ],
      "payable": false,
      "stateMutability": "view",
      "type": "function",
      "signature": "0x8f32d59b"
    },
    {
      "constant": true,
      "inputs": [],
      "name": "DisputeResolution",
      "outputs": [
        {
          "name": "",
          "type": "address"
        }
      ],
      "payable": false,
      "stateMutability": "view",
      "type": "function",
      "signature": "0x94f012cb"
    },
    {
      "constant": true,
      "inputs": [],
      "name": "DisputeResolutionAddress",
      "outputs": [
        {
          "name": "",
          "type": "address"
        }
      ],
      "payable": false,
      "stateMutability": "view",
      "type": "function",
      "signature": "0xad4cdb1b"
    },
    {
      "constant": true,
      "inputs": [],
      "name": "CUEToken",
      "outputs": [
        {
          "name": "",
          "type": "address"
        }
      ],
      "payable": false,
      "stateMutability": "view",
      "type": "function",
      "signature": "0xb80d7d3c"
    },
    {
      "constant": false,
      "inputs": [
        {
          "name": "newOwner",
          "type": "address"
        }
      ],
      "name": "transferOwnership",
      "outputs": [],
      "payable": false,
      "stateMutability": "nonpayable",
      "type": "function",
      "signature": "0xf2fde38b"
    },
    {
      "inputs": [
        {
          "name": "_CUETokenAddress",
          "type": "address"
        }
      ],
      "payable": false,
      "stateMutability": "nonpayable",
      "type": "constructor",
      "signature": "constructor"
    },
    {
      "anonymous": false,
      "inputs": [
        {
          "indexed": false,
          "name": "status",
          "type": "string"
        },
        {
          "indexed": false,
          "name": "agent",
          "type": "address"
        },
        {
          "indexed": false,
          "name": "performer",
          "type": "address"
        },
        {
          "indexed": false,
          "name": "pay",
          "type": "uint256"
        },
        {
          "indexed": false,
          "name": "deposit",
          "type": "uint256"
        },
        {
          "indexed": false,
          "name": "startTime",
          "type": "uint256"
        },
        {
          "indexed": false,
          "name": "endTime",
          "type": "uint256"
        }
      ],
      "name": "NewBooking",
      "type": "event",
      "signature": "0xebb98d77cef91a1eb133cd9f6c641ff1ac40eb4e6e88685cfde16448a6159509"
    },
    {
      "anonymous": false,
      "inputs": [
        {
          "indexed": false,
          "name": "_beneficiary",
          "type": "address"
        },
        {
          "indexed": false,
          "name": "_payout",
          "type": "uint256"
        },
        {
          "indexed": false,
          "name": "_event",
          "type": "string"
        }
      ],
      "name": "PayableEvent",
      "type": "event",
      "signature": "0x03af61e66272fd40a0cde6dc66584c5a4d7fb6d76b6cb402173b553fe07a52a4"
    },
    {
      "anonymous": false,
      "inputs": [
        {
          "indexed": false,
          "name": "_payout",
          "type": "uint256"
        }
      ],
      "name": "CueShareEvent",
      "type": "event",
      "signature": "0xe8de21856f420575d25879d686a3d63b973e7613b120e6404745d73f74bfe809"
    },
    {
      "anonymous": false,
      "inputs": [
        {
          "indexed": false,
          "name": "wtf",
          "type": "string"
        }
      ],
      "name": "TestEvent",
      "type": "event",
      "signature": "0xe75028ff36bb6473da3731a30e1aeeae9988e2415dba2c4e91e0357955065fba"
    },
    {
      "anonymous": false,
      "inputs": [
        {
          "indexed": true,
          "name": "previousOwner",
          "type": "address"
        },
        {
          "indexed": true,
          "name": "newOwner",
          "type": "address"
        }
      ],
      "name": "OwnershipTransferred",
      "type": "event",
      "signature": "0x8be0079c531659141344cd1fd0a4f28419497f9722a3daafe3b4186f6b6457e0"
    },
    {
      "constant": false,
      "inputs": [
        {
          "name": "_id",
          "type": "bytes12"
        },
        {
          "name": "_performer",
          "type": "address"
        },
        {
          "name": "_pay",
          "type": "uint256"
        },
        {
          "name": "_startTime",
          "type": "uint256"
        },
        {
          "name": "_endTime",
          "type": "uint256"
        }
      ],
      "name": "newBooking",
      "outputs": [],
      "payable": false,
      "stateMutability": "nonpayable",
      "type": "function",
      "signature": "0x4797a199"
    },
    {
      "constant": true,
      "inputs": [
        {
          "name": "_id",
          "type": "bytes12"
        }
      ],
      "name": "getBooking",
      "outputs": [
        {
          "name": "status",
          "type": "string"
        },
        {
          "name": "agent",
          "type": "address"
        },
        {
          "name": "performer",
          "type": "address"
        },
        {
          "name": "pay",
          "type": "uint256"
        },
        {
          "name": "deposit",
          "type": "uint256"
        },
        {
          "name": "startTime",
          "type": "uint256"
        },
        {
          "name": "endTime",
          "type": "uint256"
        }
      ],
      "payable": false,
      "stateMutability": "view",
      "type": "function",
      "signature": "0xd6969ed1"
    },
    {
      "constant": false,
      "inputs": [
        {
          "name": "_id",
          "type": "bytes12"
        }
      ],
      "name": "acceptBooking",
      "outputs": [],
      "payable": false,
      "stateMutability": "nonpayable",
      "type": "function",
      "signature": "0xeb748ac3"
    },
    {
      "constant": false,
      "inputs": [
        {
          "name": "_id",
          "type": "bytes12"
        }
      ],
      "name": "declineBooking",
      "outputs": [],
      "payable": false,
      "stateMutability": "nonpayable",
      "type": "function",
      "signature": "0x1ffafb41"
    },
    {
      "constant": false,
      "inputs": [
        {
          "name": "_id",
          "type": "bytes12"
        }
      ],
      "name": "cancelBooking",
      "outputs": [],
      "payable": false,
      "stateMutability": "nonpayable",
      "type": "function",
      "signature": "0xff10c923"
    },
    {
      "constant": false,
      "inputs": [
        {
          "name": "_id",
          "type": "bytes12"
        }
      ],
      "name": "withdrawPay",
      "outputs": [],
      "payable": false,
      "stateMutability": "nonpayable",
      "type": "function",
      "signature": "0xccb15a3b"
    },
    {
      "constant": false,
      "inputs": [
        {
          "name": "_id",
          "type": "bytes12"
        }
      ],
      "name": "withdrawPayUnclaimed",
      "outputs": [],
      "payable": false,
      "stateMutability": "nonpayable",
      "type": "function",
      "signature": "0x925d710b"
    },
    {
      "constant": false,
      "inputs": [
        {
          "name": "_id",
          "type": "bytes12"
        }
      ],
      "name": "agentClaim",
      "outputs": [],
      "payable": false,
      "stateMutability": "nonpayable",
      "type": "function",
      "signature": "0xd25006b7"
    },
    {
      "constant": false,
      "inputs": [
        {
          "name": "_id",
          "type": "bytes12"
        }
      ],
      "name": "performerClaim",
      "outputs": [],
      "payable": false,
      "stateMutability": "nonpayable",
      "type": "function",
      "signature": "0x396131c1"
    },
    {
      "constant": false,
      "inputs": [
        {
          "name": "_disputeResolutionAddress",
          "type": "address"
        }
      ],
      "name": "setDisputeResolutionAddress",
      "outputs": [],
      "payable": false,
      "stateMutability": "nonpayable",
      "type": "function",
      "signature": "0x13bfa594"
    },
    {
      "constant": false,
      "inputs": [
        {
          "name": "_arbitrator",
          "type": "address"
        },
        {
          "name": "_arbitratorName",
          "type": "bytes32"
        }
      ],
      "name": "addArbitrator",
      "outputs": [],
      "payable": false,
      "stateMutability": "nonpayable",
      "type": "function",
      "signature": "0x70a875a3"
    },
    {
      "constant": false,
      "inputs": [
        {
          "name": "_arbitrator",
          "type": "address"
        }
      ],
      "name": "removeArbitrator",
      "outputs": [],
      "payable": false,
      "stateMutability": "nonpayable",
      "type": "function",
      "signature": "0x973ad270"
    }
  ],
  "bytecode": "0x608060405273e347570ff1689326a3fb6ce43b29a727eaf87d31600460006101000a81548173ffffffffffffffffffffffffffffffffffffffff021916908373ffffffffffffffffffffffffffffffffffffffff1602179055506012600460146101000a81548160ff021916908360ff1602179055503480156200008257600080fd5b5060405160208062003cd683398101806040526020811015620000a457600080fd5b8101908080519060200190929190505050336000806101000a81548173ffffffffffffffffffffffffffffffffffffffff021916908373ffffffffffffffffffffffffffffffffffffffff1602179055506000809054906101000a900473ffffffffffffffffffffffffffffffffffffffff1673ffffffffffffffffffffffffffffffffffffffff16600073ffffffffffffffffffffffffffffffffffffffff167f8be0079c531659141344cd1fd0a4f28419497f9722a3daafe3b4186f6b6457e060405160405180910390a380600160006101000a81548173ffffffffffffffffffffffffffffffffffffffff021916908373ffffffffffffffffffffffffffffffffffffffff160217905550620001cc33620001d3640100000000026401000000009004565b5062000367565b620001ec62000215640100000000026401000000009004565b1515620001f857600080fd5b62000212816200026c640100000000026401000000009004565b50565b60008060009054906101000a900473ffffffffffffffffffffffffffffffffffffffff1673ffffffffffffffffffffffffffffffffffffffff163373ffffffffffffffffffffffffffffffffffffffff1614905090565b600073ffffffffffffffffffffffffffffffffffffffff168173ffffffffffffffffffffffffffffffffffffffff1614151515620002a957600080fd5b8073ffffffffffffffffffffffffffffffffffffffff166000809054906101000a900473ffffffffffffffffffffffffffffffffffffffff1673ffffffffffffffffffffffffffffffffffffffff167f8be0079c531659141344cd1fd0a4f28419497f9722a3daafe3b4186f6b6457e060405160405180910390a3806000806101000a81548173ffffffffffffffffffffffffffffffffffffffff021916908373ffffffffffffffffffffffffffffffffffffffff16021790555050565b61395f80620003776000396000f3fe608060405234801561001057600080fd5b5060043610610154576000357c010000000000000000000000000000000000000000000000000000000090048063925d710b116100d5578063ccb15a3b11610099578063ccb15a3b14610543578063d25006b714610588578063d6969ed1146105cd578063eb748ac31461070d578063f2fde38b14610752578063ff10c9231461079657610154565b8063925d710b146103dc57806394f012cb14610421578063973ad2701461046b578063ad4cdb1b146104af578063b80d7d3c146104f957610154565b806354c146901161011c57806354c14690146102ce57806370a875a314610318578063715018a6146103665780638da5cb5b146103705780638f32d59b146103ba57610154565b806313bfa594146101595780631ffafb411461019d578063313ce567146101e2578063396131c1146102065780634797a1991461024b575b600080fd5b61019b6004803603602081101561016f57600080fd5b81019080803573ffffffffffffffffffffffffffffffffffffffff1690602001909291905050506107db565b005b6101e0600480360360208110156101b357600080fd5b81019080803573ffffffffffffffffffffffffffffffffffffffff19169060200190929190505050610895565b005b6101ea610d7b565b604051808260ff1660ff16815260200191505060405180910390f35b6102496004803603602081101561021c57600080fd5b81019080803573ffffffffffffffffffffffffffffffffffffffff19169060200190929190505050610d8e565b005b6102cc600480360360a081101561026157600080fd5b81019080803573ffffffffffffffffffffffffffffffffffffffff19169060200190929190803573ffffffffffffffffffffffffffffffffffffffff16906020019092919080359060200190929190803590602001909291908035906020019092919050505061122f565b005b6102d6611a5e565b604051808273ffffffffffffffffffffffffffffffffffffffff1673ffffffffffffffffffffffffffffffffffffffff16815260200191505060405180910390f35b6103646004803603604081101561032e57600080fd5b81019080803573ffffffffffffffffffffffffffffffffffffffff16906020019092919080359060200190929190505050611a84565b005b61036e611b78565b005b610378611c4a565b604051808273ffffffffffffffffffffffffffffffffffffffff1673ffffffffffffffffffffffffffffffffffffffff16815260200191505060405180910390f35b6103c2611c73565b604051808215151515815260200191505060405180910390f35b61041f600480360360208110156103f257600080fd5b81019080803573ffffffffffffffffffffffffffffffffffffffff19169060200190929190505050611cca565b005b610429611f50565b604051808273ffffffffffffffffffffffffffffffffffffffff1673ffffffffffffffffffffffffffffffffffffffff16815260200191505060405180910390f35b6104ad6004803603602081101561048157600080fd5b81019080803573ffffffffffffffffffffffffffffffffffffffff169060200190929190505050611f76565b005b6104b7612061565b604051808273ffffffffffffffffffffffffffffffffffffffff1673ffffffffffffffffffffffffffffffffffffffff16815260200191505060405180910390f35b610501612087565b604051808273ffffffffffffffffffffffffffffffffffffffff1673ffffffffffffffffffffffffffffffffffffffff16815260200191505060405180910390f35b6105866004803603602081101561055957600080fd5b81019080803573ffffffffffffffffffffffffffffffffffffffff191690602001909291905050506120ad565b005b6105cb6004803603602081101561059e57600080fd5b81019080803573ffffffffffffffffffffffffffffffffffffffff19169060200190929190505050612315565b005b610610600480360360208110156105e357600080fd5b81019080803573ffffffffffffffffffffffffffffffffffffffff191690602001909291905050506124da565b60405180806020018873ffffffffffffffffffffffffffffffffffffffff1673ffffffffffffffffffffffffffffffffffffffff1681526020018773ffffffffffffffffffffffffffffffffffffffff1673ffffffffffffffffffffffffffffffffffffffff168152602001868152602001858152602001848152602001838152602001828103825289818151815260200191508051906020019080838360005b838110156106cc5780820151818401526020810190506106b1565b50505050905090810190601f1680156106f95780820380516001836020036101000a031916815260200191505b509850505050505050505060405180910390f35b6107506004803603602081101561072357600080fd5b81019080803573ffffffffffffffffffffffffffffffffffffffff191690602001909291905050506127bc565b005b6107946004803603602081101561076857600080fd5b81019080803573ffffffffffffffffffffffffffffffffffffffff169060200190929190505050612bdf565b005b6107d9600480360360208110156107ac57600080fd5b81019080803573ffffffffffffffffffffffffffffffffffffffff19169060200190929190505050612bfe565b005b6107e3611c73565b15156107ee57600080fd5b80600360006101000a81548173ffffffffffffffffffffffffffffffffffffffff021916908373ffffffffffffffffffffffffffffffffffffffff160217905550600360009054906101000a900473ffffffffffffffffffffffffffffffffffffffff16600260006101000a81548173ffffffffffffffffffffffffffffffffffffffff021916908373ffffffffffffffffffffffffffffffffffffffff16021790555050565b6000600560008373ffffffffffffffffffffffffffffffffffffffff191673ffffffffffffffffffffffffffffffffffffffff1916815260200190815260200160002090503373ffffffffffffffffffffffffffffffffffffffff168160020160009054906101000a900473ffffffffffffffffffffffffffffffffffffffff1673ffffffffffffffffffffffffffffffffffffffff1614151561093857600080fd5b6109dd816000018054600181600116156101000203166002900480601f0160208091040260200160405190810160405280929190818152602001828054600181600116156101000203166002900480156109d35780601f106109a8576101008083540402835291602001916109d3565b820191906000526020600020905b8154815290600101906020018083116109b657829003601f168201915b505050505061315f565b15610a9d57610a4a8160010160009054906101000a900473ffffffffffffffffffffffffffffffffffffffff1682600301546040805190810160405280600d81526020017f6167656e745f6465706f73697400000000000000000000000000000000000000815250613224565b6040805190810160405280601081526020017f706572666f726d65725f72656a65637400000000000000000000000000000000815250816000019080519060200190610a9792919061388e565b50610d77565b610b42816000018054600181600116156101000203166002900480601f016020809104026020016040519081016040528092919081815260200182805460018160011615610100020316600290048015610b385780601f10610b0d57610100808354040283529160200191610b38565b820191906000526020600020905b815481529060010190602001808311610b1b57829003601f168201915b5050505050613402565b15610d76576202a30081600501540342118015610b685750620151808160050154034211155b15610c3e57610beb8160010160009054906101000a900473ffffffffffffffffffffffffffffffffffffffff16610bb0836004015484600301546134c790919063ffffffff16565b6040805190810160405280601181526020017f706572666f726d65725f70656e616c7479000000000000000000000000000000815250613224565b6040805190810160405280601881526020017f706572666f726d65725f72656a6563745f70656e616c74790000000000000000815250816000019080519060200190610c3892919061388e565b50610d75565b6202a3008160050154034211151515610c5657600080fd5b610cbe8160020160009054906101000a900473ffffffffffffffffffffffffffffffffffffffff1682600401546040805190810160405280601181526020017f706572666f726d65725f6465706f736974000000000000000000000000000000815250613224565b610d268160010160009054906101000a900473ffffffffffffffffffffffffffffffffffffffff1682600301546040805190810160405280600d81526020017f6167656e745f6465706f73697400000000000000000000000000000000000000815250613224565b6040805190810160405280601081526020017f706572666f726d65725f72656a65637400000000000000000000000000000000815250816000019080519060200190610d7392919061388e565b505b5b5b5050565b600460149054906101000a900460ff1681565b6000600560008373ffffffffffffffffffffffffffffffffffffffff191673ffffffffffffffffffffffffffffffffffffffff1916815260200190815260200160002090503373ffffffffffffffffffffffffffffffffffffffff168160020160009054906101000a900473ffffffffffffffffffffffffffffffffffffffff1673ffffffffffffffffffffffffffffffffffffffff16148015610e355750806005015442115b8015610e4957506203f48081600601540142105b8015610ef65750610ef5816000018054600181600116156101000203166002900480601f016020809104026020016040519081016040528092919081815260200182805460018160011615610100020316600290048015610eeb5780601f10610ec057610100808354040283529160200191610eeb565b820191906000526020600020905b815481529060010190602001808311610ece57829003601f168201915b50505050506134e8565b5b1515610f0157600080fd5b600160009054906101000a900473ffffffffffffffffffffffffffffffffffffffff1673ffffffffffffffffffffffffffffffffffffffff1663a9059cbb600360009054906101000a900473ffffffffffffffffffffffffffffffffffffffff16610f7d846004015485600301546134c790919063ffffffff16565b6040518363ffffffff167c0100000000000000000000000000000000000000000000000000000000028152600401808373ffffffffffffffffffffffffffffffffffffffff1673ffffffffffffffffffffffffffffffffffffffff16815260200182815260200192505050602060405180830381600087803b15801561100257600080fd5b505af1158015611016573d6000803e3d6000fd5b505050506040513d602081101561102c57600080fd5b810190808051906020019092919050505050600260009054906101000a900473ffffffffffffffffffffffffffffffffffffffff1673ffffffffffffffffffffffffffffffffffffffff1663356a7fd4838360010160009054906101000a900473ffffffffffffffffffffffffffffffffffffffff168460020160009054906101000a900473ffffffffffffffffffffffffffffffffffffffff16856003015486600401546040518663ffffffff167c0100000000000000000000000000000000000000000000000000000000028152600401808673ffffffffffffffffffffffffffffffffffffffff191673ffffffffffffffffffffffffffffffffffffffff191681526020018573ffffffffffffffffffffffffffffffffffffffff1673ffffffffffffffffffffffffffffffffffffffff1681526020018473ffffffffffffffffffffffffffffffffffffffff1673ffffffffffffffffffffffffffffffffffffffff16815260200183815260200182815260200195505050505050600060405180830381600087803b1580156111c557600080fd5b505af11580156111d9573d6000803e3d6000fd5b505050506040805190810160405280600781526020017f646973707574650000000000000000000000000000000000000000000000000081525081600001908051906020019061122a92919061388e565b505050565b600073ffffffffffffffffffffffffffffffffffffffff16600560008773ffffffffffffffffffffffffffffffffffffffff191673ffffffffffffffffffffffffffffffffffffffff1916815260200190815260200160002060010160009054906101000a900473ffffffffffffffffffffffffffffffffffffffff1673ffffffffffffffffffffffffffffffffffffffff161480156112fb57503373ffffffffffffffffffffffffffffffffffffffff168473ffffffffffffffffffffffffffffffffffffffff1614155b801561131c5750600460149054906101000a900460ff1660ff16600a0a8310155b80156114515750600160009054906101000a900473ffffffffffffffffffffffffffffffffffffffff1673ffffffffffffffffffffffffffffffffffffffff1663dd62ed3e33306040518363ffffffff167c0100000000000000000000000000000000000000000000000000000000028152600401808373ffffffffffffffffffffffffffffffffffffffff1673ffffffffffffffffffffffffffffffffffffffff1681526020018273ffffffffffffffffffffffffffffffffffffffff1673ffffffffffffffffffffffffffffffffffffffff1681526020019250505060206040518083038186803b15801561141257600080fd5b505afa158015611426573d6000803e3d6000fd5b505050506040513d602081101561143c57600080fd5b81019080805190602001909291905050508311155b801561145c57508142105b801561146a57506000828203115b151561147557600080fd5b600160009054906101000a900473ffffffffffffffffffffffffffffffffffffffff1673ffffffffffffffffffffffffffffffffffffffff166323b872dd3330866040518463ffffffff167c0100000000000000000000000000000000000000000000000000000000028152600401808473ffffffffffffffffffffffffffffffffffffffff1673ffffffffffffffffffffffffffffffffffffffff1681526020018373ffffffffffffffffffffffffffffffffffffffff1673ffffffffffffffffffffffffffffffffffffffff1681526020018281526020019350505050602060405180830381600087803b15801561156e57600080fd5b505af1158015611582573d6000803e3d6000fd5b505050506040513d602081101561159857600080fd5b8101908080519060200190929190505050506000600560008773ffffffffffffffffffffffffffffffffffffffff191673ffffffffffffffffffffffffffffffffffffffff1916815260200190815260200160002090506040805190810160405280600981526020017f726571756573746564000000000000000000000000000000000000000000000081525081600001908051906020019061163c92919061388e565b50338160010160006101000a81548173ffffffffffffffffffffffffffffffffffffffff021916908373ffffffffffffffffffffffffffffffffffffffff160217905550848160020160006101000a81548173ffffffffffffffffffffffffffffffffffffffff021916908373ffffffffffffffffffffffffffffffffffffffff1602179055508381600301819055506116e0600a856135ad90919063ffffffff16565b81600401819055508281600501819055508181600601819055507febb98d77cef91a1eb133cd9f6c641ff1ac40eb4e6e88685cfde16448a6159509600560008873ffffffffffffffffffffffffffffffffffffffff191673ffffffffffffffffffffffffffffffffffffffff19168152602001908152602001600020600001600560008973ffffffffffffffffffffffffffffffffffffffff191673ffffffffffffffffffffffffffffffffffffffff1916815260200190815260200160002060010160009054906101000a900473ffffffffffffffffffffffffffffffffffffffff16600560008a73ffffffffffffffffffffffffffffffffffffffff191673ffffffffffffffffffffffffffffffffffffffff1916815260200190815260200160002060020160009054906101000a900473ffffffffffffffffffffffffffffffffffffffff16600560008b73ffffffffffffffffffffffffffffffffffffffff191673ffffffffffffffffffffffffffffffffffffffff1916815260200190815260200160002060030154600560008c73ffffffffffffffffffffffffffffffffffffffff191673ffffffffffffffffffffffffffffffffffffffff1916815260200190815260200160002060040154600560008d73ffffffffffffffffffffffffffffffffffffffff191673ffffffffffffffffffffffffffffffffffffffff1916815260200190815260200160002060050154600560008e73ffffffffffffffffffffffffffffffffffffffff191673ffffffffffffffffffffffffffffffffffffffff191681526020019081526020016000206006015460405180806020018873ffffffffffffffffffffffffffffffffffffffff1673ffffffffffffffffffffffffffffffffffffffff1681526020018773ffffffffffffffffffffffffffffffffffffffff1673ffffffffffffffffffffffffffffffffffffffff168152602001868152602001858152602001848152602001838152602001828103825289818154600181600116156101000203166002900481526020019150805460018160011615610100020316600290048015611a425780601f10611a1757610100808354040283529160200191611a42565b820191906000526020600020905b815481529060010190602001808311611a2557829003601f168201915b50509850505050505050505060405180910390a1505050505050565b600460009054906101000a900473ffffffffffffffffffffffffffffffffffffffff1681565b611a8c611c73565b1515611a9757600080fd5b600260009054906101000a900473ffffffffffffffffffffffffffffffffffffffff1673ffffffffffffffffffffffffffffffffffffffff166370a875a383836040518363ffffffff167c0100000000000000000000000000000000000000000000000000000000028152600401808373ffffffffffffffffffffffffffffffffffffffff1673ffffffffffffffffffffffffffffffffffffffff16815260200182815260200192505050600060405180830381600087803b158015611b5c57600080fd5b505af1158015611b70573d6000803e3d6000fd5b505050505050565b611b80611c73565b1515611b8b57600080fd5b600073ffffffffffffffffffffffffffffffffffffffff166000809054906101000a900473ffffffffffffffffffffffffffffffffffffffff1673ffffffffffffffffffffffffffffffffffffffff167f8be0079c531659141344cd1fd0a4f28419497f9722a3daafe3b4186f6b6457e060405160405180910390a360008060006101000a81548173ffffffffffffffffffffffffffffffffffffffff021916908373ffffffffffffffffffffffffffffffffffffffff160217905550565b60008060009054906101000a900473ffffffffffffffffffffffffffffffffffffffff16905090565b60008060009054906101000a900473ffffffffffffffffffffffffffffffffffffffff1673ffffffffffffffffffffffffffffffffffffffff163373ffffffffffffffffffffffffffffffffffffffff1614905090565b6000600560008373ffffffffffffffffffffffffffffffffffffffff191673ffffffffffffffffffffffffffffffffffffffff1916815260200190815260200160002090503373ffffffffffffffffffffffffffffffffffffffff168160010160009054906101000a900473ffffffffffffffffffffffffffffffffffffffff1673ffffffffffffffffffffffffffffffffffffffff16148015611e2357506203f48081600601540142118015611e225750611e21816000018054600181600116156101000203166002900480601f016020809104026020016040519081016040528092919081815260200182805460018160011615610100020316600290048015611e175780601f10611dec57610100808354040283529160200191611e17565b820191906000526020600020905b815481529060010190602001808311611dfa57829003601f168201915b50505050506134e8565b5b5b1515611e2e57600080fd5b611e968160020160009054906101000a900473ffffffffffffffffffffffffffffffffffffffff1682600401546040805190810160405280601181526020017f706572666f726d65725f6465706f736974000000000000000000000000000000815250613224565b611efe8160010160009054906101000a900473ffffffffffffffffffffffffffffffffffffffff1682600301546040805190810160405280600d81526020017f6167656e745f6465706f73697400000000000000000000000000000000000000815250613224565b6040805190810160405280601481526020017f6167656e745f636c61696d5f7769746864726177000000000000000000000000815250816000019080519060200190611f4b92919061388e565b505050565b600260009054906101000a900473ffffffffffffffffffffffffffffffffffffffff1681565b611f7e611c73565b1515611f8957600080fd5b600260009054906101000a900473ffffffffffffffffffffffffffffffffffffffff1673ffffffffffffffffffffffffffffffffffffffff1663973ad270826040518263ffffffff167c0100000000000000000000000000000000000000000000000000000000028152600401808273ffffffffffffffffffffffffffffffffffffffff1673ffffffffffffffffffffffffffffffffffffffff168152602001915050600060405180830381600087803b15801561204657600080fd5b505af115801561205a573d6000803e3d6000fd5b5050505050565b600360009054906101000a900473ffffffffffffffffffffffffffffffffffffffff1681565b600160009054906101000a900473ffffffffffffffffffffffffffffffffffffffff1681565b6000600560008373ffffffffffffffffffffffffffffffffffffffff191673ffffffffffffffffffffffffffffffffffffffff1916815260200190815260200160002090503373ffffffffffffffffffffffffffffffffffffffff168160020160009054906101000a900473ffffffffffffffffffffffffffffffffffffffff1673ffffffffffffffffffffffffffffffffffffffff1614801561215a5750620151808160060154014210155b80156122075750612206816000018054600181600116156101000203166002900480601f0160208091040260200160405190810160405280929190818152602001828054600181600116156101000203166002900480156121fc5780601f106121d1576101008083540402835291602001916121fc565b820191906000526020600020905b8154815290600101906020018083116121df57829003601f168201915b5050505050613402565b5b151561221257600080fd5b6122a38160020160009054906101000a900473ffffffffffffffffffffffffffffffffffffffff16612268612255600285600401546135ad90919063ffffffff16565b84600301546134c790919063ffffffff16565b6040805190810160405280601281526020017f706572666f726d65725f77697468647261770000000000000000000000000000815250613224565b6122c36122be600283600401546135ad90919063ffffffff16565b6135d7565b6040805190810160405280600981526020017f636f6d706c65746564000000000000000000000000000000000000000000000081525081600001908051906020019061231092919061388e565b505050565b6000600560008373ffffffffffffffffffffffffffffffffffffffff191673ffffffffffffffffffffffffffffffffffffffff1916815260200190815260200160002090503373ffffffffffffffffffffffffffffffffffffffff168160010160009054906101000a900473ffffffffffffffffffffffffffffffffffffffff1673ffffffffffffffffffffffffffffffffffffffff161480156123bc5750806005015442115b80156123d057506201518081600601540142105b801561247d575061247c816000018054600181600116156101000203166002900480601f0160208091040260200160405190810160405280929190818152602001828054600181600116156101000203166002900480156124725780601f1061244757610100808354040283529160200191612472565b820191906000526020600020905b81548152906001019060200180831161245557829003601f168201915b5050505050613402565b5b151561248857600080fd5b6040805190810160405280600b81526020017f6167656e745f636c61696d0000000000000000000000000000000000000000008152508160000190805190602001906124d592919061388e565b505050565b6060600080600080600080600560008973ffffffffffffffffffffffffffffffffffffffff191673ffffffffffffffffffffffffffffffffffffffff19168152602001908152602001600020600001600560008a73ffffffffffffffffffffffffffffffffffffffff191673ffffffffffffffffffffffffffffffffffffffff1916815260200190815260200160002060010160009054906101000a900473ffffffffffffffffffffffffffffffffffffffff16600560008b73ffffffffffffffffffffffffffffffffffffffff191673ffffffffffffffffffffffffffffffffffffffff1916815260200190815260200160002060020160009054906101000a900473ffffffffffffffffffffffffffffffffffffffff16600560008c73ffffffffffffffffffffffffffffffffffffffff191673ffffffffffffffffffffffffffffffffffffffff1916815260200190815260200160002060030154600560008d73ffffffffffffffffffffffffffffffffffffffff191673ffffffffffffffffffffffffffffffffffffffff1916815260200190815260200160002060040154600560008e73ffffffffffffffffffffffffffffffffffffffff191673ffffffffffffffffffffffffffffffffffffffff1916815260200190815260200160002060050154600560008f73ffffffffffffffffffffffffffffffffffffffff191673ffffffffffffffffffffffffffffffffffffffff1916815260200190815260200160002060060154868054600181600116156101000203166002900480601f01602080910402602001604051908101604052809291908181526020018280546001816001161561010002031660029004801561279c5780601f106127715761010080835404028352916020019161279c565b820191906000526020600020905b81548152906001019060200180831161277f57829003601f168201915b505050505096509650965096509650965096509650919395979092949650565b6000600560008373ffffffffffffffffffffffffffffffffffffffff191673ffffffffffffffffffffffffffffffffffffffff1916815260200190815260200160002090503373ffffffffffffffffffffffffffffffffffffffff168160020160009054906101000a900473ffffffffffffffffffffffffffffffffffffffff1673ffffffffffffffffffffffffffffffffffffffff161480156128635750806005015442105b8015612910575061290f816000018054600181600116156101000203166002900480601f0160208091040260200160405190810160405280929190818152602001828054600181600116156101000203166002900480156129055780601f106128da57610100808354040283529160200191612905565b820191906000526020600020905b8154815290600101906020018083116128e857829003601f168201915b505050505061315f565b5b8015612a495750600160009054906101000a900473ffffffffffffffffffffffffffffffffffffffff1673ffffffffffffffffffffffffffffffffffffffff1663dd62ed3e33306040518363ffffffff167c0100000000000000000000000000000000000000000000000000000000028152600401808373ffffffffffffffffffffffffffffffffffffffff1673ffffffffffffffffffffffffffffffffffffffff1681526020018273ffffffffffffffffffffffffffffffffffffffff1673ffffffffffffffffffffffffffffffffffffffff1681526020019250505060206040518083038186803b158015612a0657600080fd5b505afa158015612a1a573d6000803e3d6000fd5b505050506040513d6020811015612a3057600080fd5b8101908080519060200190929190505050816004015411155b1515612a5457600080fd5b600160009054906101000a900473ffffffffffffffffffffffffffffffffffffffff1673ffffffffffffffffffffffffffffffffffffffff166323b872dd333084600401546040518463ffffffff167c0100000000000000000000000000000000000000000000000000000000028152600401808473ffffffffffffffffffffffffffffffffffffffff1673ffffffffffffffffffffffffffffffffffffffff1681526020018373ffffffffffffffffffffffffffffffffffffffff1673ffffffffffffffffffffffffffffffffffffffff1681526020018281526020019350505050602060405180830381600087803b158015612b5157600080fd5b505af1158015612b65573d6000803e3d6000fd5b505050506040513d6020811015612b7b57600080fd5b8101908080519060200190929190505050506040805190810160405280600681526020017f626f6f6b65640000000000000000000000000000000000000000000000000000815250816000019080519060200190612bda92919061388e565b505050565b612be7611c73565b1515612bf257600080fd5b612bfb81613734565b50565b6000600560008373ffffffffffffffffffffffffffffffffffffffff191673ffffffffffffffffffffffffffffffffffffffff1916815260200190815260200160002090503373ffffffffffffffffffffffffffffffffffffffff168160010160009054906101000a900473ffffffffffffffffffffffffffffffffffffffff1673ffffffffffffffffffffffffffffffffffffffff16141515612ca157600080fd5b612d46816000018054600181600116156101000203166002900480601f016020809104026020016040519081016040528092919081815260200182805460018160011615610100020316600290048015612d3c5780601f10612d1157610100808354040283529160200191612d3c565b820191906000526020600020905b815481529060010190602001808311612d1f57829003601f168201915b505050505061315f565b15612e0657612db38160010160009054906101000a900473ffffffffffffffffffffffffffffffffffffffff1682600301546040805190810160405280600d81526020017f6167656e745f6465706f73697400000000000000000000000000000000000000815250613224565b6040805190810160405280600c81526020017f6167656e745f72656a6563740000000000000000000000000000000000000000815250816000019080519060200190612e0092919061388e565b5061315b565b612eab816000018054600181600116156101000203166002900480601f016020809104026020016040519081016040528092919081815260200182805460018160011615610100020316600290048015612ea15780601f10612e7657610100808354040283529160200191612ea1565b820191906000526020600020905b815481529060010190602001808311612e8457829003601f168201915b5050505050613402565b1561315a576202a30081600501540342118015612ed15750620151808160050154034211155b1561302257612f548160010160009054906101000a900473ffffffffffffffffffffffffffffffffffffffff16612f198360040154846003015461382e90919063ffffffff16565b6040805190810160405280600d81526020017f6167656e745f70656e616c747900000000000000000000000000000000000000815250613224565b612fcf8160020160009054906101000a900473ffffffffffffffffffffffffffffffffffffffff16612f946002846004015461385090919063ffffffff16565b6040805190810160405280601181526020017f706572666f726d65725f62656e65666974000000000000000000000000000000815250613224565b6040805190810160405280601481526020017f6167656e745f72656a6563745f70656e616c747900000000000000000000000081525081600001908051906020019061301c92919061388e565b50613159565b6202a300816005015403421115151561303a57600080fd5b6130a28160020160009054906101000a900473ffffffffffffffffffffffffffffffffffffffff1682600401546040805190810160405280601181526020017f706572666f726d65725f6465706f736974000000000000000000000000000000815250613224565b61310a8160010160009054906101000a900473ffffffffffffffffffffffffffffffffffffffff1682600301546040805190810160405280600d81526020017f6167656e745f6465706f73697400000000000000000000000000000000000000815250613224565b6040805190810160405280600c81526020017f6167656e745f72656a656374000000000000000000000000000000000000000081525081600001908051906020019061315792919061388e565b505b5b5b5050565b600060405160200180807f7265717565737465640000000000000000000000000000000000000000000000815250600901905060405160208183030381529060405280519060200120826040516020018082805190602001908083835b6020831015156131e157805182526020820191506020810190506020830392506131bc565b6001836020036101000a03801982511681845116808217855250505050505090500191505060405160208183030381529060405280519060200120149050919050565b600160009054906101000a900473ffffffffffffffffffffffffffffffffffffffff1673ffffffffffffffffffffffffffffffffffffffff1663a9059cbb84846040518363ffffffff167c0100000000000000000000000000000000000000000000000000000000028152600401808373ffffffffffffffffffffffffffffffffffffffff1673ffffffffffffffffffffffffffffffffffffffff16815260200182815260200192505050602060405180830381600087803b1580156132e957600080fd5b505af11580156132fd573d6000803e3d6000fd5b505050506040513d602081101561331357600080fd5b8101908080519060200190929190505050507f03af61e66272fd40a0cde6dc66584c5a4d7fb6d76b6cb402173b553fe07a52a4838383604051808473ffffffffffffffffffffffffffffffffffffffff1673ffffffffffffffffffffffffffffffffffffffff16815260200183815260200180602001828103825283818151815260200191508051906020019080838360005b838110156133c15780820151818401526020810190506133a6565b50505050905090810190601f1680156133ee5780820380516001836020036101000a031916815260200191505b5094505050505060405180910390a1505050565b600060405160200180807f626f6f6b65640000000000000000000000000000000000000000000000000000815250600601905060405160208183030381529060405280519060200120826040516020018082805190602001908083835b602083101515613484578051825260208201915060208101905060208303925061345f565b6001836020036101000a03801982511681845116808217855250505050505090500191505060405160208183030381529060405280519060200120149050919050565b60008082840190508381101515156134de57600080fd5b8091505092915050565b600060405160200180807f6167656e745f636c61696d000000000000000000000000000000000000000000815250600b01905060405160208183030381529060405280519060200120826040516020018082805190602001908083835b60208310151561356a5780518252602082019150602081019050602083039250613545565b6001836020036101000a03801982511681845116808217855250505050505090500191505060405160208183030381529060405280519060200120149050919050565b600080821115156135bd57600080fd5b600082848115156135ca57fe5b0490508091505092915050565b600160009054906101000a900473ffffffffffffffffffffffffffffffffffffffff1673ffffffffffffffffffffffffffffffffffffffff1663a9059cbb600460009054906101000a900473ffffffffffffffffffffffffffffffffffffffff16836040518363ffffffff167c0100000000000000000000000000000000000000000000000000000000028152600401808373ffffffffffffffffffffffffffffffffffffffff1673ffffffffffffffffffffffffffffffffffffffff16815260200182815260200192505050602060405180830381600087803b1580156136be57600080fd5b505af11580156136d2573d6000803e3d6000fd5b505050506040513d60208110156136e857600080fd5b8101908080519060200190929190505050507fe8de21856f420575d25879d686a3d63b973e7613b120e6404745d73f74bfe809816040518082815260200191505060405180910390a150565b600073ffffffffffffffffffffffffffffffffffffffff168173ffffffffffffffffffffffffffffffffffffffff161415151561377057600080fd5b8073ffffffffffffffffffffffffffffffffffffffff166000809054906101000a900473ffffffffffffffffffffffffffffffffffffffff1673ffffffffffffffffffffffffffffffffffffffff167f8be0079c531659141344cd1fd0a4f28419497f9722a3daafe3b4186f6b6457e060405160405180910390a3806000806101000a81548173ffffffffffffffffffffffffffffffffffffffff021916908373ffffffffffffffffffffffffffffffffffffffff16021790555050565b600082821115151561383f57600080fd5b600082840390508091505092915050565b6000808314156138635760009050613888565b6000828402905082848281151561387657fe5b0414151561388357600080fd5b809150505b92915050565b828054600181600116156101000203166002900490600052602060002090601f016020900481019282601f106138cf57805160ff19168380011785556138fd565b828001600101855582156138fd579182015b828111156138fc5782518255916020019190600101906138e1565b5b50905061390a919061390e565b5090565b61393091905b8082111561392c576000816000905550600101613914565b5090565b9056fea165627a7a72305820a383310c38f53f6f4361fa048bb605d5a274db965763a96ae1fd3a21d75f34430029",
  "source": "pragma solidity ^0.5.2;\n\nimport 'openzeppelin-solidity/contracts/token/ERC20/ERC20.sol';\nimport 'openzeppelin-solidity/contracts/ownership/Ownable.sol';\nimport './CUEDisputeResolution.sol';\nimport './CUETips.sol';\n\ncontract CUEBookings is Ownable {\n  using SafeMath for uint256;\n\n  ERC20 public CUEToken;\n  CUEDisputeResolution public DisputeResolution;\n  address public DisputeResolutionAddress;\n  address public CUEWallet = 0xe347570Ff1689326a3FB6CE43b29A727EAf87d31;\n  uint8 public decimals = 18;\n\n  struct Booking {\n    string status;\n    address agent;\n    address performer;\n    uint256 pay;\n    uint256 deposit;\n    uint256 startTime;\n    uint256 endTime;\n  }\n\n  mapping (bytes12 => Booking) private bookings;\n\n  constructor(address _CUETokenAddress) public {\n    CUEToken = ERC20(_CUETokenAddress);\n    transferOwnership(msg.sender);\n  }\n\n  event NewBooking(string status, address agent, address performer, uint256 pay, uint256 deposit, uint256 startTime, uint256 endTime);\n  event PayableEvent(address _beneficiary, uint256 _payout, string _event);\n  event CueShareEvent(uint256 _payout);\n  event TestEvent(string wtf);\n\n  function returnOrPayout(address _beneficiary, uint256 _pay, string memory _event) private {\n    CUEToken.transfer(_beneficiary, _pay);\n    emit PayableEvent(_beneficiary, _pay, _event);\n  }\n\n  function cueShare(uint256 _share) private {\n    CUEToken.transfer(CUEWallet, _share);\n    emit CueShareEvent(_share);\n  }\n\n  function newBooking(bytes12 _id, address _performer, uint256 _pay, uint256 _startTime, uint256 _endTime) public {\n    require(\n      bookings[_id].agent == address(0) && // Check if booking does not exist\n      _performer != msg.sender &&\n      _pay >= 10 ** uint256(decimals) &&\n      _pay <= CUEToken.allowance(msg.sender, address(this)) &&\n      now < _startTime &&\n      _endTime - _startTime > 0);\n    CUEToken.transferFrom(msg.sender, address(this), _pay);\n\n    Booking storage booking = bookings[_id];\n    booking.status = 'requested';\n    booking.agent = msg.sender;\n    booking.performer = _performer;\n    booking.pay = _pay;\n    booking.deposit = _pay.div(10);\n    booking.startTime = _startTime;\n    booking.endTime = _endTime;\n\n    emit NewBooking(bookings[_id].status, bookings[_id].agent, bookings[_id].performer, bookings[_id].pay, bookings[_id].deposit, bookings[_id].startTime, bookings[_id].endTime);\n  }\n\n  function getBooking(bytes12 _id) public view returns (string memory status, address agent, address performer, uint256 pay, uint256 deposit, uint256 startTime, uint256 endTime) {\n    return (\n      bookings[_id].status,\n      bookings[_id].agent,\n      bookings[_id].performer,\n      bookings[_id].pay,\n      bookings[_id].deposit,\n      bookings[_id].startTime,\n      bookings[_id].endTime\n    );\n  }\n\n  function isRequested(string memory status) private pure returns (bool) {\n    return keccak256(abi.encodePacked(status)) == keccak256(abi.encodePacked('requested'));\n  }\n\n  function isBooked(string memory status) private pure returns (bool) {\n    return keccak256(abi.encodePacked(status)) == keccak256(abi.encodePacked('booked'));\n  }\n\n  function isAgentClaim(string memory status) private pure returns (bool) {\n    return keccak256(abi.encodePacked(status)) == keccak256(abi.encodePacked('agent_claim'));\n  }\n\n  // Performer accepts booking\n  function acceptBooking(bytes12 _id) public {\n    Booking storage booking = bookings[_id];\n    require(\n      booking.performer == msg.sender &&\n      now < booking.startTime &&\n      isRequested(booking.status) &&\n      booking.deposit <= CUEToken.allowance(msg.sender, address(this))\n    );\n\n    CUEToken.transferFrom(msg.sender, address(this), booking.deposit);\n    booking.status = 'booked';\n  }\n\n  // Performer declines booking\n  function declineBooking(bytes12 _id) public {\n    Booking storage booking = bookings[_id];\n    require(booking.performer == msg.sender);\n \n    if (isRequested(booking.status)) {\n      returnOrPayout(booking.agent, booking.pay, 'agent_deposit');\n      booking.status = 'performer_reject';\n    } else if (isBooked(booking.status)) {\n      if (now > booking.startTime - 48 hours && now <= booking.startTime - 24 hours) { // Penalize performer\n        returnOrPayout(booking.agent, booking.pay.add(booking.deposit), 'performer_penalty');\n        booking.status = 'performer_reject_penalty';\n      } else {\n        require(now <= booking.startTime - 48 hours);\n        returnOrPayout(booking.performer, booking.deposit, 'performer_deposit');\n        returnOrPayout(booking.agent, booking.pay, 'agent_deposit');\n        booking.status = 'performer_reject';\n      }\n    }\n  }\n\n  // Booking agent cancels booking\n  function cancelBooking(bytes12 _id) public {\n    Booking storage booking = bookings[_id];\n    require(booking.agent == msg.sender);\n\n    if (isRequested(booking.status)) {\n      returnOrPayout(booking.agent, booking.pay, 'agent_deposit');\n      booking.status = 'agent_reject';\n    } else if (isBooked(booking.status)) {\n      if (now > booking.startTime - 48 hours && now <= booking.startTime - 24 hours) { // Penalize booking agent\n        returnOrPayout(booking.agent, booking.pay.sub(booking.deposit), 'agent_penalty');\n        returnOrPayout(booking.performer, booking.deposit.mul(2), 'performer_benefit');\n        booking.status = 'agent_reject_penalty';\n      } else {\n        require(now <= booking.startTime - 48 hours);\n        returnOrPayout(booking.performer, booking.deposit, 'performer_deposit');\n        returnOrPayout(booking.agent, booking.pay, 'agent_deposit');\n        booking.status = 'agent_reject';\n      }\n    }\n  }\n\n  function withdrawPay(bytes12 _id) public {\n    Booking storage booking = bookings[_id];\n    require(\n      booking.performer == msg.sender &&\n      now >= booking.endTime + 24 hours &&\n      isBooked(booking.status)\n    );\n\n    returnOrPayout(booking.performer, booking.pay.add(booking.deposit.div(2)), 'performer_withdraw');\n    cueShare(booking.deposit.div(2));\n    booking.status = 'completed';\n  }\n\n  function withdrawPayUnclaimed(bytes12 _id) public {\n    Booking storage booking = bookings[_id];\n    require(\n      booking.agent == msg.sender &&\n      (now > booking.endTime + 72 hours &&\n      isAgentClaim(booking.status))\n    );\n\n    returnOrPayout(booking.performer, booking.deposit, 'performer_deposit');\n    returnOrPayout(booking.agent, booking.pay, 'agent_deposit');\n    booking.status = 'agent_claim_withdraw';\n  }\n\n  function agentClaim(bytes12 _id) public {\n    Booking storage booking = bookings[_id];\n    require(\n      booking.agent == msg.sender &&\n      now > booking.startTime && now < booking.endTime + 24 hours &&\n      isBooked(booking.status)\n    );\n\n    booking.status = 'agent_claim';\n  }\n\n  function performerClaim(bytes12 _id) public {\n    Booking storage booking = bookings[_id];\n    require(\n      booking.performer == msg.sender &&\n      now > booking.startTime && now < booking.endTime + 72 hours &&\n      isAgentClaim(booking.status)\n    );\n\n    CUEToken.transfer(DisputeResolutionAddress, booking.pay.add(booking.deposit));\n    DisputeResolution.createDispute(_id, booking.agent, booking.performer, booking.pay, booking.deposit);\n\n    booking.status = 'dispute';\n  }\n\n  // Dispute resolution functions\n  function setDisputeResolutionAddress(address _disputeResolutionAddress) public onlyOwner() {\n    DisputeResolutionAddress = _disputeResolutionAddress;\n    DisputeResolution = CUEDisputeResolution(DisputeResolutionAddress);\n  }\n\n  function addArbitrator(address _arbitrator, bytes32 _arbitratorName) public onlyOwner() {\n    DisputeResolution.addArbitrator(_arbitrator, _arbitratorName);\n  }\n\n  function removeArbitrator(address _arbitrator) public onlyOwner() {\n    DisputeResolution.removeArbitrator(_arbitrator);\n  }\n}",
  "sourcePath": "/mnt/c/Users/illes/dev/cue-token/contracts/CUEBookings.sol",
  "compiler": {
    "name": "solc",
    "version": "0.5.2+commit.1df8f40c.Emscripten.clang"
  },
  "schemaVersion": "3.0.3",
  "updatedAt": "2019-03-30T21:01:08.072Z",
  "devdoc": {
    "methods": {
      "isOwner()": {
        "return": "true if `msg.sender` is the owner of the contract."
      },
      "owner()": {
        "return": "the address of the owner."
      },
      "renounceOwnership()": {
        "details": "Allows the current owner to relinquish control of the contract. It will not be possible to call the functions with the `onlyOwner` modifier anymore."
      },
      "transferOwnership(address)": {
        "details": "Allows the current owner to transfer control of the contract to a newOwner.",
        "params": {
          "newOwner": "The address to transfer ownership to."
        }
      }
    }
  },
  "userdoc": {
    "methods": {
      "renounceOwnership()": {
        "notice": "Renouncing ownership will leave the contract without an owner, thereby removing any functionality that is only available to the owner."
      }
    }
  }
}