{
  "contractName": "CUEDisputeResolution",
  "abi": [
    {
      "constant": true,
      "inputs": [],
      "name": "CUEBookingsAddress",
      "outputs": [
        {
          "name": "",
          "type": "address"
        }
      ],
      "payable": false,
      "stateMutability": "view",
      "type": "function",
      "signature": "0x23a56864"
    },
    {
      "constant": true,
      "inputs": [],
      "name": "CUEWallet",
      "outputs": [
        {
          "name": "",
          "type": "address"
        }
      ],
      "payable": false,
      "stateMutability": "view",
      "type": "function",
      "signature": "0x54c14690"
    },
    {
      "constant": false,
      "inputs": [],
      "name": "renounceOwnership",
      "outputs": [],
      "payable": false,
      "stateMutability": "nonpayable",
      "type": "function",
      "signature": "0x715018a6"
    },
    {
      "constant": true,
      "inputs": [],
      "name": "owner",
      "outputs": [
        {
          "name": "",
          "type": "address"
        }
      ],
      "payable": false,
      "stateMutability": "view",
      "type": "function",
      "signature": "0x8da5cb5b"
    },
    {
      "constant": true,
      "inputs": [],
      "name": "isOwner",
      "outputs": [
        {
          "name": "",
          "type": "bool"
        }
      ],
      "payable": false,
      "stateMutability": "view",
      "type": "function",
      "signature": "0x8f32d59b"
    },
    {
      "constant": true,
      "inputs": [
        {
          "name": "",
          "type": "uint256"
        }
      ],
      "name": "arbitratorList",
      "outputs": [
        {
          "name": "",
          "type": "address"
        }
      ],
      "payable": false,
      "stateMutability": "view",
      "type": "function",
      "signature": "0xa23ae203"
    },
    {
      "constant": true,
      "inputs": [],
      "name": "CUEToken",
      "outputs": [
        {
          "name": "",
          "type": "address"
        }
      ],
      "payable": false,
      "stateMutability": "view",
      "type": "function",
      "signature": "0xb80d7d3c"
    },
    {
      "constant": false,
      "inputs": [
        {
          "name": "newOwner",
          "type": "address"
        }
      ],
      "name": "transferOwnership",
      "outputs": [],
      "payable": false,
      "stateMutability": "nonpayable",
      "type": "function",
      "signature": "0xf2fde38b"
    },
    {
      "inputs": [
        {
          "name": "_CUETokenAddress",
          "type": "address"
        }
      ],
      "payable": false,
      "stateMutability": "nonpayable",
      "type": "constructor",
      "signature": "constructor"
    },
    {
      "anonymous": false,
      "inputs": [
        {
          "indexed": false,
          "name": "id",
          "type": "bytes12"
        },
        {
          "indexed": false,
          "name": "status",
          "type": "string"
        },
        {
          "indexed": false,
          "name": "agent",
          "type": "address"
        },
        {
          "indexed": false,
          "name": "performer",
          "type": "address"
        },
        {
          "indexed": false,
          "name": "pay",
          "type": "uint256"
        },
        {
          "indexed": false,
          "name": "deposit",
          "type": "uint256"
        }
      ],
      "name": "NewDispute",
      "type": "event",
      "signature": "0xd559c055d1d1a035ddb2aaa762eed9adbd7375b9e349b781a89951d84131442a"
    },
    {
      "anonymous": false,
      "inputs": [
        {
          "indexed": true,
          "name": "previousOwner",
          "type": "address"
        },
        {
          "indexed": true,
          "name": "newOwner",
          "type": "address"
        }
      ],
      "name": "OwnershipTransferred",
      "type": "event",
      "signature": "0x8be0079c531659141344cd1fd0a4f28419497f9722a3daafe3b4186f6b6457e0"
    },
    {
      "constant": false,
      "inputs": [
        {
          "name": "_CUEBookingsAddress",
          "type": "address"
        }
      ],
      "name": "setBookingsAddress",
      "outputs": [],
      "payable": false,
      "stateMutability": "nonpayable",
      "type": "function",
      "signature": "0x5e42d7fd"
    },
    {
      "constant": false,
      "inputs": [
        {
          "name": "_arbitrator",
          "type": "address"
        },
        {
          "name": "_abitratorName",
          "type": "bytes32"
        }
      ],
      "name": "addArbitrator",
      "outputs": [],
      "payable": false,
      "stateMutability": "nonpayable",
      "type": "function",
      "signature": "0x70a875a3"
    },
    {
      "constant": false,
      "inputs": [
        {
          "name": "_arbitrator",
          "type": "address"
        }
      ],
      "name": "removeArbitrator",
      "outputs": [],
      "payable": false,
      "stateMutability": "nonpayable",
      "type": "function",
      "signature": "0x973ad270"
    },
    {
      "constant": true,
      "inputs": [],
      "name": "getArbitratorCount",
      "outputs": [
        {
          "name": "count",
          "type": "uint256"
        }
      ],
      "payable": false,
      "stateMutability": "view",
      "type": "function",
      "signature": "0x1923c96f"
    },
    {
      "constant": true,
      "inputs": [
        {
          "name": "_arbitrator",
          "type": "address"
        }
      ],
      "name": "getArbitrator",
      "outputs": [
        {
          "name": "arbitrator",
          "type": "bytes32"
        }
      ],
      "payable": false,
      "stateMutability": "view",
      "type": "function",
      "signature": "0x388b0c02"
    },
    {
      "constant": false,
      "inputs": [
        {
          "name": "_id",
          "type": "bytes12"
        },
        {
          "name": "_agent",
          "type": "address"
        },
        {
          "name": "_performer",
          "type": "address"
        },
        {
          "name": "_pay",
          "type": "uint256"
        },
        {
          "name": "_deposit",
          "type": "uint256"
        }
      ],
      "name": "createDispute",
      "outputs": [],
      "payable": false,
      "stateMutability": "nonpayable",
      "type": "function",
      "signature": "0x356a7fd4"
    },
    {
      "constant": true,
      "inputs": [
        {
          "name": "_id",
          "type": "bytes12"
        }
      ],
      "name": "getDispute",
      "outputs": [
        {
          "name": "status",
          "type": "string"
        },
        {
          "name": "agent",
          "type": "address"
        },
        {
          "name": "performer",
          "type": "address"
        },
        {
          "name": "pay",
          "type": "uint256"
        },
        {
          "name": "deposit",
          "type": "uint256"
        }
      ],
      "payable": false,
      "stateMutability": "view",
      "type": "function",
      "signature": "0xa5002645"
    },
    {
      "constant": false,
      "inputs": [
        {
          "name": "_id",
          "type": "bytes12"
        },
        {
          "name": "_didPerformerWin",
          "type": "bool"
        }
      ],
      "name": "resolveDispute",
      "outputs": [],
      "payable": false,
      "stateMutability": "nonpayable",
      "type": "function",
      "signature": "0xee2b8f3a"
    }
  ],
  "bytecode": "0x608060405273e347570ff1689326a3fb6ce43b29a727eaf87d31600360006101000a81548173ffffffffffffffffffffffffffffffffffffffff021916908373ffffffffffffffffffffffffffffffffffffffff1602179055503480156200006657600080fd5b5060405160208062001c80833981018060405260208110156200008857600080fd5b8101908080519060200190929190505050336000806101000a81548173ffffffffffffffffffffffffffffffffffffffff021916908373ffffffffffffffffffffffffffffffffffffffff1602179055506000809054906101000a900473ffffffffffffffffffffffffffffffffffffffff1673ffffffffffffffffffffffffffffffffffffffff16600073ffffffffffffffffffffffffffffffffffffffff167f8be0079c531659141344cd1fd0a4f28419497f9722a3daafe3b4186f6b6457e060405160405180910390a380600160006101000a81548173ffffffffffffffffffffffffffffffffffffffff021916908373ffffffffffffffffffffffffffffffffffffffff160217905550620001b033620001b7640100000000026401000000009004565b506200034b565b620001d0620001f9640100000000026401000000009004565b1515620001dc57600080fd5b620001f68162000250640100000000026401000000009004565b50565b60008060009054906101000a900473ffffffffffffffffffffffffffffffffffffffff1673ffffffffffffffffffffffffffffffffffffffff163373ffffffffffffffffffffffffffffffffffffffff1614905090565b600073ffffffffffffffffffffffffffffffffffffffff168173ffffffffffffffffffffffffffffffffffffffff16141515156200028d57600080fd5b8073ffffffffffffffffffffffffffffffffffffffff166000809054906101000a900473ffffffffffffffffffffffffffffffffffffffff1673ffffffffffffffffffffffffffffffffffffffff167f8be0079c531659141344cd1fd0a4f28419497f9722a3daafe3b4186f6b6457e060405160405180910390a3806000806101000a81548173ffffffffffffffffffffffffffffffffffffffff021916908373ffffffffffffffffffffffffffffffffffffffff16021790555050565b611925806200035b6000396000f3fe608060405234801561001057600080fd5b506004361061011d576000357c0100000000000000000000000000000000000000000000000000000000900480638da5cb5b116100b4578063a500264511610083578063a50026451461047f578063b80d7d3c146105b1578063ee2b8f3a146105fb578063f2fde38b1461064c5761011d565b80638da5cb5b146103615780638f32d59b146103ab578063973ad270146103cd578063a23ae203146104115761011d565b806354c14690116100f057806354c146901461027b5780635e42d7fd146102c557806370a875a314610309578063715018a6146103575761011d565b80631923c96f1461012257806323a5686414610140578063356a7fd41461018a578063388b0c0214610223575b600080fd5b61012a610690565b6040518082815260200191505060405180910390f35b61014861069d565b604051808273ffffffffffffffffffffffffffffffffffffffff1673ffffffffffffffffffffffffffffffffffffffff16815260200191505060405180910390f35b610221600480360360a08110156101a057600080fd5b81019080803573ffffffffffffffffffffffffffffffffffffffff19169060200190929190803573ffffffffffffffffffffffffffffffffffffffff169060200190929190803573ffffffffffffffffffffffffffffffffffffffff16906020019092919080359060200190929190803590602001909291905050506106c3565b005b6102656004803603602081101561023957600080fd5b81019080803573ffffffffffffffffffffffffffffffffffffffff16906020019092919050505061091f565b6040518082815260200191505060405180910390f35b610283610968565b604051808273ffffffffffffffffffffffffffffffffffffffff1673ffffffffffffffffffffffffffffffffffffffff16815260200191505060405180910390f35b610307600480360360208110156102db57600080fd5b81019080803573ffffffffffffffffffffffffffffffffffffffff16906020019092919050505061098e565b005b6103556004803603604081101561031f57600080fd5b81019080803573ffffffffffffffffffffffffffffffffffffffff16906020019092919080359060200190929190505050610a10565b005b61035f610ad4565b005b610369610ba6565b604051808273ffffffffffffffffffffffffffffffffffffffff1673ffffffffffffffffffffffffffffffffffffffff16815260200191505060405180910390f35b6103b3610bcf565b604051808215151515815260200191505060405180910390f35b61040f600480360360208110156103e357600080fd5b81019080803573ffffffffffffffffffffffffffffffffffffffff169060200190929190505050610c26565b005b61043d6004803603602081101561042757600080fd5b8101908080359060200190929190505050610e01565b604051808273ffffffffffffffffffffffffffffffffffffffff1673ffffffffffffffffffffffffffffffffffffffff16815260200191505060405180910390f35b6104c26004803603602081101561049557600080fd5b81019080803573ffffffffffffffffffffffffffffffffffffffff19169060200190929190505050610e3f565b60405180806020018673ffffffffffffffffffffffffffffffffffffffff1673ffffffffffffffffffffffffffffffffffffffff1681526020018573ffffffffffffffffffffffffffffffffffffffff1673ffffffffffffffffffffffffffffffffffffffff168152602001848152602001838152602001828103825287818151815260200191508051906020019080838360005b83811015610572578082015181840152602081019050610557565b50505050905090810190601f16801561059f5780820380516001836020036101000a031916815260200191505b50965050505050505060405180910390f35b6105b961108e565b604051808273ffffffffffffffffffffffffffffffffffffffff1673ffffffffffffffffffffffffffffffffffffffff16815260200191505060405180910390f35b61064a6004803603604081101561061157600080fd5b81019080803573ffffffffffffffffffffffffffffffffffffffff191690602001909291908035151590602001909291905050506110b4565b005b61068e6004803603602081101561066257600080fd5b81019080803573ffffffffffffffffffffffffffffffffffffffff1690602001909291905050506116c4565b005b6000600680549050905090565b600260009054906101000a900473ffffffffffffffffffffffffffffffffffffffff1681565b6106cb610bcf565b15156106d657600080fd5b6000600460008773ffffffffffffffffffffffffffffffffffffffff191673ffffffffffffffffffffffffffffffffffffffff1916815260200190815260200160002090506040805190810160405280600a81526020017f756e7265736f6c76656400000000000000000000000000000000000000000000815250816000019080519060200190610768929190611828565b50848160010160006101000a81548173ffffffffffffffffffffffffffffffffffffffff021916908373ffffffffffffffffffffffffffffffffffffffff160217905550838160020160006101000a81548173ffffffffffffffffffffffffffffffffffffffff021916908373ffffffffffffffffffffffffffffffffffffffff1602179055508281600301819055508181600401819055507fd559c055d1d1a035ddb2aaa762eed9adbd7375b9e349b781a89951d84131442a8686868686604051808673ffffffffffffffffffffffffffffffffffffffff191673ffffffffffffffffffffffffffffffffffffffff19168152602001806020018673ffffffffffffffffffffffffffffffffffffffff1673ffffffffffffffffffffffffffffffffffffffff1681526020018573ffffffffffffffffffffffffffffffffffffffff1673ffffffffffffffffffffffffffffffffffffffff1681526020018481526020018381526020018281038252600a8152602001807f756e7265736f6c76656400000000000000000000000000000000000000000000815250602001965050505050505060405180910390a1505050505050565b6000600560008373ffffffffffffffffffffffffffffffffffffffff1673ffffffffffffffffffffffffffffffffffffffff168152602001908152602001600020549050919050565b600360009054906101000a900473ffffffffffffffffffffffffffffffffffffffff1681565b610996610bcf565b15156109a157600080fd5b80600260006101000a81548173ffffffffffffffffffffffffffffffffffffffff021916908373ffffffffffffffffffffffffffffffffffffffff160217905550610a0d600260009054906101000a900473ffffffffffffffffffffffffffffffffffffffff166116c4565b50565b610a18610bcf565b1515610a2357600080fd5b80600560008473ffffffffffffffffffffffffffffffffffffffff1673ffffffffffffffffffffffffffffffffffffffff16815260200190815260200160002081905550600160068390806001815401808255809150509060018203906000526020600020016000909192909190916101000a81548173ffffffffffffffffffffffffffffffffffffffff021916908373ffffffffffffffffffffffffffffffffffffffff16021790555050505050565b610adc610bcf565b1515610ae757600080fd5b600073ffffffffffffffffffffffffffffffffffffffff166000809054906101000a900473ffffffffffffffffffffffffffffffffffffffff1673ffffffffffffffffffffffffffffffffffffffff167f8be0079c531659141344cd1fd0a4f28419497f9722a3daafe3b4186f6b6457e060405160405180910390a360008060006101000a81548173ffffffffffffffffffffffffffffffffffffffff021916908373ffffffffffffffffffffffffffffffffffffffff160217905550565b60008060009054906101000a900473ffffffffffffffffffffffffffffffffffffffff16905090565b60008060009054906101000a900473ffffffffffffffffffffffffffffffffffffffff1673ffffffffffffffffffffffffffffffffffffffff163373ffffffffffffffffffffffffffffffffffffffff1614905090565b610c2e610bcf565b1515610c3957600080fd5b60008090505b600680549050811015610dba578173ffffffffffffffffffffffffffffffffffffffff16600682815481101515610c7257fe5b9060005260206000200160009054906101000a900473ffffffffffffffffffffffffffffffffffffffff1673ffffffffffffffffffffffffffffffffffffffff161415610dad576006600160068054905003815481101515610cd057fe5b9060005260206000200160009054906101000a900473ffffffffffffffffffffffffffffffffffffffff16600682815481101515610d0a57fe5b9060005260206000200160006101000a81548173ffffffffffffffffffffffffffffffffffffffff021916908373ffffffffffffffffffffffffffffffffffffffff1602179055506006600160068054905003815481101515610d6957fe5b9060005260206000200160006101000a81549073ffffffffffffffffffffffffffffffffffffffff02191690556006805480919060019003610dab91906118a8565b505b8080600101915050610c3f565b50600560008273ffffffffffffffffffffffffffffffffffffffff1673ffffffffffffffffffffffffffffffffffffffff1681526020019081526020016000206000905550565b600681815481101515610e1057fe5b906000526020600020016000915054906101000a900473ffffffffffffffffffffffffffffffffffffffff1681565b6060600080600080600460008773ffffffffffffffffffffffffffffffffffffffff191673ffffffffffffffffffffffffffffffffffffffff19168152602001908152602001600020600001600460008873ffffffffffffffffffffffffffffffffffffffff191673ffffffffffffffffffffffffffffffffffffffff1916815260200190815260200160002060010160009054906101000a900473ffffffffffffffffffffffffffffffffffffffff16600460008973ffffffffffffffffffffffffffffffffffffffff191673ffffffffffffffffffffffffffffffffffffffff1916815260200190815260200160002060020160009054906101000a900473ffffffffffffffffffffffffffffffffffffffff16600460008a73ffffffffffffffffffffffffffffffffffffffff191673ffffffffffffffffffffffffffffffffffffffff1916815260200190815260200160002060030154600460008b73ffffffffffffffffffffffffffffffffffffffff191673ffffffffffffffffffffffffffffffffffffffff1916815260200190815260200160002060040154848054600181600116156101000203166002900480601f0160208091040260200160405190810160405280929190818152602001828054600181600116156101000203166002900480156110745780601f1061104957610100808354040283529160200191611074565b820191906000526020600020905b81548152906001019060200180831161105757829003601f168201915b505050505094509450945094509450945091939590929450565b600160009054906101000a900473ffffffffffffffffffffffffffffffffffffffff1681565b6000600560003373ffffffffffffffffffffffffffffffffffffffff1673ffffffffffffffffffffffffffffffffffffffff16815260200190815260200160002050602060ff161415151561110857600080fd5b6000600460008473ffffffffffffffffffffffffffffffffffffffff191673ffffffffffffffffffffffffffffffffffffffff19168152602001908152602001600020905081156113e457600160009054906101000a900473ffffffffffffffffffffffffffffffffffffffff1673ffffffffffffffffffffffffffffffffffffffff1663a9059cbb600360009054906101000a900473ffffffffffffffffffffffffffffffffffffffff166111cc600285600401546116e390919063ffffffff16565b6040518363ffffffff167c0100000000000000000000000000000000000000000000000000000000028152600401808373ffffffffffffffffffffffffffffffffffffffff1673ffffffffffffffffffffffffffffffffffffffff16815260200182815260200192505050602060405180830381600087803b15801561125157600080fd5b505af1158015611265573d6000803e3d6000fd5b505050506040513d602081101561127b57600080fd5b810190808051906020019092919050505050600160009054906101000a900473ffffffffffffffffffffffffffffffffffffffff1673ffffffffffffffffffffffffffffffffffffffff1663a9059cbb8260020160009054906101000a900473ffffffffffffffffffffffffffffffffffffffff1661131e61130b600286600401546116e390919063ffffffff16565b856003015461170d90919063ffffffff16565b6040518363ffffffff167c0100000000000000000000000000000000000000000000000000000000028152600401808373ffffffffffffffffffffffffffffffffffffffff1673ffffffffffffffffffffffffffffffffffffffff16815260200182815260200192505050602060405180830381600087803b1580156113a357600080fd5b505af11580156113b7573d6000803e3d6000fd5b505050506040513d60208110156113cd57600080fd5b810190808051906020019092919050505050611671565b600160009054906101000a900473ffffffffffffffffffffffffffffffffffffffff1673ffffffffffffffffffffffffffffffffffffffff1663a9059cbb600360009054906101000a900473ffffffffffffffffffffffffffffffffffffffff1661145d600285600401546116e390919063ffffffff16565b6040518363ffffffff167c0100000000000000000000000000000000000000000000000000000000028152600401808373ffffffffffffffffffffffffffffffffffffffff1673ffffffffffffffffffffffffffffffffffffffff16815260200182815260200192505050602060405180830381600087803b1580156114e257600080fd5b505af11580156114f6573d6000803e3d6000fd5b505050506040513d602081101561150c57600080fd5b810190808051906020019092919050505050600160009054906101000a900473ffffffffffffffffffffffffffffffffffffffff1673ffffffffffffffffffffffffffffffffffffffff1663a9059cbb8260010160009054906101000a900473ffffffffffffffffffffffffffffffffffffffff166115af61159c600286600401546116e390919063ffffffff16565b856003015461170d90919063ffffffff16565b6040518363ffffffff167c0100000000000000000000000000000000000000000000000000000000028152600401808373ffffffffffffffffffffffffffffffffffffffff1673ffffffffffffffffffffffffffffffffffffffff16815260200182815260200192505050602060405180830381600087803b15801561163457600080fd5b505af1158015611648573d6000803e3d6000fd5b505050506040513d602081101561165e57600080fd5b8101908080519060200190929190505050505b6040805190810160405280600881526020017f7265736f6c7665640000000000000000000000000000000000000000000000008152508160000190805190602001906116be929190611828565b50505050565b6116cc610bcf565b15156116d757600080fd5b6116e08161172e565b50565b600080821115156116f357600080fd5b6000828481151561170057fe5b0490508091505092915050565b600080828401905083811015151561172457600080fd5b8091505092915050565b600073ffffffffffffffffffffffffffffffffffffffff168173ffffffffffffffffffffffffffffffffffffffff161415151561176a57600080fd5b8073ffffffffffffffffffffffffffffffffffffffff166000809054906101000a900473ffffffffffffffffffffffffffffffffffffffff1673ffffffffffffffffffffffffffffffffffffffff167f8be0079c531659141344cd1fd0a4f28419497f9722a3daafe3b4186f6b6457e060405160405180910390a3806000806101000a81548173ffffffffffffffffffffffffffffffffffffffff021916908373ffffffffffffffffffffffffffffffffffffffff16021790555050565b828054600181600116156101000203166002900490600052602060002090601f016020900481019282601f1061186957805160ff1916838001178555611897565b82800160010185558215611897579182015b8281111561189657825182559160200191906001019061187b565b5b5090506118a491906118d4565b5090565b8154818355818111156118cf578183600052602060002091820191016118ce91906118d4565b5b505050565b6118f691905b808211156118f25760008160009055506001016118da565b5090565b9056fea165627a7a7230582009e8bccd3bc2ab586a643cbbe40560a86cfc616336fe3e7dd76aa9c2b1983fda0029",
  "source": "pragma solidity ^0.5.2;\n\nimport 'openzeppelin-solidity/contracts/token/ERC20/ERC20.sol';\nimport 'openzeppelin-solidity/contracts/ownership/Ownable.sol';\nimport './CUETips.sol';\n\ncontract CUEDisputeResolution is Ownable {\n  using SafeMath for uint256;\n\n  ERC20 public CUEToken;\n  address public CUEBookingsAddress;\n  address public CUEWallet = 0xe347570Ff1689326a3FB6CE43b29A727EAf87d31;\n\n  struct Dispute {\n    string status;\n    address agent;\n    address performer;\n    uint256 pay;\n    uint256 deposit;\n  }\n\n  mapping (bytes12 => Dispute) private disputes;\n  mapping (address => bytes32) private arbitrators;\n  address[] public arbitratorList;\n\n  constructor(address _CUETokenAddress) public {\n    CUEToken = ERC20(_CUETokenAddress);\n    transferOwnership(msg.sender);\n  }\n\n  function setBookingsAddress(address _CUEBookingsAddress) public onlyOwner() {\n    CUEBookingsAddress = _CUEBookingsAddress;\n    transferOwnership(CUEBookingsAddress);\n  }\n\n  event NewDispute(bytes12 id, string status, address agent, address performer, uint256 pay, uint256 deposit);\n\n  function addArbitrator(address _arbitrator, bytes32 _abitratorName) public onlyOwner() {\n    arbitrators[_arbitrator] = _abitratorName;\n    arbitratorList.push(_arbitrator) -1;\n  }\n\n  function removeArbitrator(address _arbitrator) public onlyOwner() {\n    for (uint i = 0; i < arbitratorList.length; i++) {\n      if (arbitratorList[i] == _arbitrator) {\n        arbitratorList[i] = arbitratorList[arbitratorList.length - 1];\n        delete arbitratorList[arbitratorList.length - 1];\n        arbitratorList.length--;\n      }\n    }\n    delete arbitrators[_arbitrator];\n  }\n\n  function getArbitratorCount() public view returns (uint count) {\n    return arbitratorList.length;\n  }\n\n  function getArbitrator(address _arbitrator) public view returns (bytes32 arbitrator) {\n    return arbitrators[_arbitrator];\n  }\n\n  function createDispute(bytes12 _id, address _agent, address _performer, uint256 _pay, uint256 _deposit) public onlyOwner() {\n    Dispute storage dispute = disputes[_id];\n    dispute.status = 'unresolved';\n    dispute.agent = _agent;\n    dispute.performer = _performer;\n    dispute.pay = _pay;\n    dispute.deposit = _deposit;\n\n    emit NewDispute(_id, 'unresolved', _agent, _performer, _pay, _deposit);\n  }\n\n  function getDispute(bytes12 _id) public view returns (string memory status, address agent, address performer, uint256 pay, uint256 deposit) {\n    return (\n      disputes[_id].status,\n      disputes[_id].agent,\n      disputes[_id].performer,\n      disputes[_id].pay,\n      disputes[_id].deposit\n    );\n  }\n\n  function resolveDispute(bytes12 _id, bool _didPerformerWin) public {\n    require(arbitrators[msg.sender].length != 0);\n    Dispute storage dispute = disputes[_id];\n\n    if (_didPerformerWin) {\n      CUEToken.transfer(CUEWallet, dispute.deposit.div(2));\n      CUEToken.transfer(dispute.performer, dispute.pay.add(dispute.deposit.div(2)));\n    }\n    else {\n      CUEToken.transfer(CUEWallet, dispute.deposit.div(2));\n      CUEToken.transfer(dispute.agent, dispute.pay.add(dispute.deposit.div(2)));\n    }\n\n    dispute.status = 'resolved';\n  }\n}",
  "sourcePath": "/mnt/c/Users/illes/dev/cue-token/contracts/CUEDisputeResolution.sol",
  "compiler": {
    "name": "solc",
    "version": "0.5.2+commit.1df8f40c.Emscripten.clang"
  },
  "schemaVersion": "3.0.3",
  "updatedAt": "2019-03-30T21:01:23.024Z",
  "devdoc": {
    "methods": {
      "isOwner()": {
        "return": "true if `msg.sender` is the owner of the contract."
      },
      "owner()": {
        "return": "the address of the owner."
      },
      "renounceOwnership()": {
        "details": "Allows the current owner to relinquish control of the contract. It will not be possible to call the functions with the `onlyOwner` modifier anymore."
      },
      "transferOwnership(address)": {
        "details": "Allows the current owner to transfer control of the contract to a newOwner.",
        "params": {
          "newOwner": "The address to transfer ownership to."
        }
      }
    }
  },
  "userdoc": {
    "methods": {
      "renounceOwnership()": {
        "notice": "Renouncing ownership will leave the contract without an owner, thereby removing any functionality that is only available to the owner."
      }
    }
  }
}